{
  "contractName": "Betting",
  "abi": [
    {
      "constant": true,
      "inputs": [
        {
          "name": "",
          "type": "uint256"
        }
      ],
      "name": "matchMakers",
      "outputs": [
        {
          "name": "id",
          "type": "address"
        },
        {
          "name": "name",
          "type": "string"
        }
      ],
      "payable": false,
      "stateMutability": "view",
      "type": "function"
    },
    {
      "constant": true,
      "inputs": [],
      "name": "resultShare",
      "outputs": [
        {
          "name": "",
          "type": "uint256"
        }
      ],
      "payable": false,
      "stateMutability": "view",
      "type": "function"
    },
    {
      "constant": true,
      "inputs": [
        {
          "name": "",
          "type": "uint256"
        }
      ],
      "name": "matches",
      "outputs": [
        {
          "name": "hash",
          "type": "bytes32"
        },
        {
          "name": "homeTeam",
          "type": "string"
        },
        {
          "name": "awayTeam",
          "type": "string"
        },
        {
          "name": "league",
          "type": "string"
        },
        {
          "name": "startTime",
          "type": "uint256"
        },
        {
          "name": "finished",
          "type": "bool"
        },
        {
          "name": "betPool",
          "type": "uint256"
        }
      ],
      "payable": false,
      "stateMutability": "view",
      "type": "function"
    },
    {
      "constant": true,
      "inputs": [
        {
          "name": "",
          "type": "bytes32"
        }
      ],
      "name": "matchIndex",
      "outputs": [
        {
          "name": "",
          "type": "uint256"
        }
      ],
      "payable": false,
      "stateMutability": "view",
      "type": "function"
    },
    {
      "constant": true,
      "inputs": [],
      "name": "owner",
      "outputs": [
        {
          "name": "",
          "type": "address"
        }
      ],
      "payable": false,
      "stateMutability": "view",
      "type": "function"
    },
    {
      "constant": true,
      "inputs": [
        {
          "name": "",
          "type": "address"
        }
      ],
      "name": "matchMakerIndex",
      "outputs": [
        {
          "name": "",
          "type": "uint256"
        }
      ],
      "payable": false,
      "stateMutability": "view",
      "type": "function"
    },
    {
      "constant": true,
      "inputs": [],
      "name": "resultsNecessary",
      "outputs": [
        {
          "name": "",
          "type": "uint256"
        }
      ],
      "payable": false,
      "stateMutability": "view",
      "type": "function"
    },
    {
      "constant": false,
      "inputs": [
        {
          "name": "newOwner",
          "type": "address"
        }
      ],
      "name": "transferOwnership",
      "outputs": [],
      "payable": false,
      "stateMutability": "nonpayable",
      "type": "function"
    },
    {
      "inputs": [],
      "payable": false,
      "stateMutability": "nonpayable",
      "type": "constructor"
    },
    {
      "payable": true,
      "stateMutability": "payable",
      "type": "fallback"
    },
    {
      "constant": false,
      "inputs": [
        {
          "name": "makerAddress",
          "type": "address"
        },
        {
          "name": "makerName",
          "type": "string"
        }
      ],
      "name": "addMatchMaker",
      "outputs": [],
      "payable": false,
      "stateMutability": "nonpayable",
      "type": "function"
    },
    {
      "constant": false,
      "inputs": [
        {
          "name": "makerAddress",
          "type": "address"
        }
      ],
      "name": "removeMatchMaker",
      "outputs": [],
      "payable": false,
      "stateMutability": "nonpayable",
      "type": "function"
    },
    {
      "constant": false,
      "inputs": [
        {
          "name": "homeTeam",
          "type": "string"
        },
        {
          "name": "awayTeam",
          "type": "string"
        },
        {
          "name": "league",
          "type": "string"
        },
        {
          "name": "startTime",
          "type": "uint256"
        }
      ],
      "name": "createMatch",
      "outputs": [
        {
          "name": "matchHash",
          "type": "bytes32"
        }
      ],
      "payable": false,
      "stateMutability": "nonpayable",
      "type": "function"
    },
    {
      "constant": false,
      "inputs": [
        {
          "name": "homeTeam",
          "type": "string"
        },
        {
          "name": "awayTeam",
          "type": "string"
        },
        {
          "name": "league",
          "type": "string"
        },
        {
          "name": "startTime",
          "type": "uint256"
        }
      ],
      "name": "removeMatch",
      "outputs": [],
      "payable": false,
      "stateMutability": "nonpayable",
      "type": "function"
    },
    {
      "constant": true,
      "inputs": [
        {
          "name": "homeTeam",
          "type": "string"
        },
        {
          "name": "awayTeam",
          "type": "string"
        },
        {
          "name": "league",
          "type": "string"
        },
        {
          "name": "startTime",
          "type": "uint256"
        }
      ],
      "name": "getMatch",
      "outputs": [
        {
          "name": "",
          "type": "bytes32"
        },
        {
          "name": "",
          "type": "string"
        },
        {
          "name": "",
          "type": "string"
        },
        {
          "name": "",
          "type": "string"
        },
        {
          "name": "",
          "type": "uint256"
        },
        {
          "name": "",
          "type": "bool"
        }
      ],
      "payable": false,
      "stateMutability": "view",
      "type": "function"
    },
    {
      "constant": false,
      "inputs": [
        {
          "name": "homeTeam",
          "type": "string"
        },
        {
          "name": "awayTeam",
          "type": "string"
        },
        {
          "name": "league",
          "type": "string"
        },
        {
          "name": "startTime",
          "type": "uint256"
        },
        {
          "name": "homeScore",
          "type": "uint256"
        },
        {
          "name": "awayScore",
          "type": "uint256"
        }
      ],
      "name": "submitMatchResult",
      "outputs": [],
      "payable": false,
      "stateMutability": "nonpayable",
      "type": "function"
    },
    {
      "constant": false,
      "inputs": [
        {
          "name": "homeTeam",
          "type": "string"
        },
        {
          "name": "awayTeam",
          "type": "string"
        },
        {
          "name": "league",
          "type": "string"
        },
        {
          "name": "startTime",
          "type": "uint256"
        }
      ],
      "name": "withdrawResult",
      "outputs": [],
      "payable": false,
      "stateMutability": "nonpayable",
      "type": "function"
    },
    {
      "constant": false,
      "inputs": [
        {
          "name": "homeTeam",
          "type": "string"
        },
        {
          "name": "awayTeam",
          "type": "string"
        },
        {
          "name": "league",
          "type": "string"
        },
        {
          "name": "startTime",
          "type": "uint256"
        },
        {
          "name": "betOnTeam",
          "type": "string"
        }
      ],
      "name": "placeBet",
      "outputs": [],
      "payable": true,
      "stateMutability": "payable",
      "type": "function"
    },
    {
      "constant": false,
      "inputs": [
        {
          "name": "homeTeam",
          "type": "string"
        },
        {
          "name": "awayTeam",
          "type": "string"
        },
        {
          "name": "league",
          "type": "string"
        },
        {
          "name": "startTime",
          "type": "uint256"
        }
      ],
      "name": "removeBet",
      "outputs": [],
      "payable": true,
      "stateMutability": "payable",
      "type": "function"
    },
    {
      "constant": true,
      "inputs": [
        {
          "name": "homeTeam",
          "type": "string"
        },
        {
          "name": "awayTeam",
          "type": "string"
        },
        {
          "name": "league",
          "type": "string"
        },
        {
          "name": "startTime",
          "type": "uint256"
        }
      ],
      "name": "getBet",
      "outputs": [
        {
          "name": "",
          "type": "bytes32"
        },
        {
          "name": "",
          "type": "address"
        },
        {
          "name": "",
          "type": "string"
        },
        {
          "name": "",
          "type": "uint256"
        },
        {
          "name": "",
          "type": "bool"
        }
      ],
      "payable": false,
      "stateMutability": "view",
      "type": "function"
    },
    {
      "constant": false,
      "inputs": [
        {
          "name": "homeTeam",
          "type": "string"
        },
        {
          "name": "awayTeam",
          "type": "string"
        },
        {
          "name": "league",
          "type": "string"
        },
        {
          "name": "startTime",
          "type": "uint256"
        }
      ],
      "name": "withdrawBet",
      "outputs": [],
      "payable": false,
      "stateMutability": "nonpayable",
      "type": "function"
    },
    {
      "constant": true,
      "inputs": [
        {
          "name": "homeTeam",
          "type": "string"
        },
        {
          "name": "awayTeam",
          "type": "string"
        },
        {
          "name": "league",
          "type": "string"
        },
        {
          "name": "startTime",
          "type": "uint256"
        }
      ],
      "name": "getFinalResult",
      "outputs": [
        {
          "name": "",
          "type": "bytes32"
        },
        {
          "name": "",
          "type": "bytes32"
        },
        {
          "name": "",
          "type": "string"
        },
        {
          "name": "",
          "type": "uint256"
        },
        {
          "name": "",
          "type": "string"
        },
        {
          "name": "",
          "type": "uint256"
        }
      ],
      "payable": false,
      "stateMutability": "view",
      "type": "function"
    },
    {
      "constant": true,
      "inputs": [],
      "name": "getEtherBalance",
      "outputs": [
        {
          "name": "",
          "type": "uint256"
        }
      ],
      "payable": false,
      "stateMutability": "view",
      "type": "function"
    },
    {
      "constant": false,
      "inputs": [],
      "name": "kill",
      "outputs": [],
      "payable": false,
      "stateMutability": "nonpayable",
      "type": "function"
    }
  ],
  "bytecode": "0x608060405262000029600460036200011964010000000002620049fa179091906401000000009004565b60055562000051606460636200011964010000000002620049fa179091906401000000009004565b6006553480156200006157600080fd5b50336000806101000a81548173ffffffffffffffffffffffffffffffffffffffff021916908373ffffffffffffffffffffffffffffffffffffffff160217905550620001136000809054906101000a900473ffffffffffffffffffffffffffffffffffffffff166040805190810160405280600381526020017f42656e000000000000000000000000000000000000000000000000000000000081525062000135640100000000026401000000009004565b62000451565b60008082848115156200012857fe5b0490508091505092915050565b6000806000809054906101000a900473ffffffffffffffffffffffffffffffffffffffff1673ffffffffffffffffffffffffffffffffffffffff163373ffffffffffffffffffffffffffffffffffffffff161415156200019457600080fd5b600160008573ffffffffffffffffffffffffffffffffffffffff1673ffffffffffffffffffffffffffffffffffffffff16815260200190815260200160002054915060008214156200024257600280549050600160008673ffffffffffffffffffffffffffffffffffffffff1673ffffffffffffffffffffffffffffffffffffffff16815260200190815260200160002081905550600280548091906001016200023f9190620002c6565b91505b6002828154811015156200025257fe5b90600052602060002090600202019050838160000160006101000a81548173ffffffffffffffffffffffffffffffffffffffff021916908373ffffffffffffffffffffffffffffffffffffffff16021790555082816001019080519060200190620002bf929190620002fb565b5050505050565b815481835581811115620002f657600202816002028360005260206000209182019101620002f5919062000382565b5b505050565b828054600181600116156101000203166002900490600052602060002090601f016020900481019282601f106200033e57805160ff19168380011785556200036f565b828001600101855582156200036f579182015b828111156200036e57825182559160200191906001019062000351565b5b5090506200037e9190620003dd565b5090565b620003da91905b80821115620003d657600080820160006101000a81549073ffffffffffffffffffffffffffffffffffffffff0219169055600182016000620003cc919062000405565b5060020162000389565b5090565b90565b6200040291905b80821115620003fe576000816000905550600101620003e4565b5090565b90565b50805460018160011615610100020316600290046000825580601f106200042d57506200044e565b601f0160209004906000526020600020908101906200044d9190620003dd565b5b50565b61578b80620004616000396000f300608060405260043610610128576000357c0100000000000000000000000000000000000000000000000000000000900463ffffffff1680630664d1bf1461012a5780630ffa5f6b146102035780632117df43146102465780632879acdc146103455780632fc997951461037057806341c0e1b51461046f5780634768d4ef146104865780635295e57c1461062c5780635bdb11281461072b57806381f86397146107705780638669b39b146108625780638acd67ab146109755780638da5cb5b14610b855780638e682bbc14610bdc5780639a0c8be014610da8578063a025fda814610dff578063ab8c88a114610f37578063b463b63414610fc0578063b93d90a0146110db578063ea46193e14611106578063f13a51cd14611131578063f2fde38b146113a2575b005b34801561013657600080fd5b50610155600480360381019080803590602001909291905050506113e5565b604051808373ffffffffffffffffffffffffffffffffffffffff1673ffffffffffffffffffffffffffffffffffffffff16815260200180602001828103825283818151815260200191508051906020019080838360005b838110156101c75780820151818401526020810190506101ac565b50505050905090810190601f1680156101f45780820380516001836020036101000a031916815260200191505b50935050505060405180910390f35b34801561020f57600080fd5b50610244600480360381019080803573ffffffffffffffffffffffffffffffffffffffff1690602001909291905050506114d0565b005b34801561025257600080fd5b50610343600480360381019080803590602001908201803590602001908080601f0160208091040260200160405190810160405280939291908181526020018383808284378201915050505050509192919290803590602001908201803590602001908080601f0160208091040260200160405190810160405280939291908181526020018383808284378201915050505050509192919290803590602001908201803590602001908080601f0160208091040260200160405190810160405280939291908181526020018383808284378201915050505050509192919290803590602001909291905050506117eb565b005b34801561035157600080fd5b5061035a611b51565b6040518082815260200191505060405180910390f35b34801561037c57600080fd5b5061046d600480360381019080803590602001908201803590602001908080601f0160208091040260200160405190810160405280939291908181526020018383808284378201915050505050509192919290803590602001908201803590602001908080601f0160208091040260200160405190810160405280939291908181526020018383808284378201915050505050509192919290803590602001908201803590602001908080601f016020809104026020016040519081016040528093929190818152602001838380828437820191505050505050919291929080359060200190929190505050611b57565b005b34801561047b57600080fd5b50610484612090565b005b34801561049257600080fd5b506104b160048036038101908080359060200190929190505050612125565b6040518088600019166000191681526020018060200180602001806020018781526020018615151515815260200185815260200184810384528a818151815260200191508051906020019080838360005b8381101561051d578082015181840152602081019050610502565b50505050905090810190601f16801561054a5780820380516001836020036101000a031916815260200191505b50848103835289818151815260200191508051906020019080838360005b83811015610583578082015181840152602081019050610568565b50505050905090810190601f1680156105b05780820380516001836020036101000a031916815260200191505b50848103825288818151815260200191508051906020019080838360005b838110156105e95780820151818401526020810190506105ce565b50505050905090810190601f1680156106165780820380516001836020036101000a031916815260200191505b509a505050505050505050505060405180910390f35b34801561063857600080fd5b50610729600480360381019080803590602001908201803590602001908080601f0160208091040260200160405190810160405280939291908181526020018383808284378201915050505050509192919290803590602001908201803590602001908080601f0160208091040260200160405190810160405280939291908181526020018383808284378201915050505050509192919290803590602001908201803590602001908080601f01602080910402602001604051908101604052809392919081815260200183838082843782019150505050505091929192908035906020019092919050505061234b565b005b34801561073757600080fd5b5061075a6004803603810190808035600019169060200190929190505050612870565b6040518082815260200191505060405180910390f35b610860600480360381019080803590602001908201803590602001908080601f0160208091040260200160405190810160405280939291908181526020018383808284378201915050505050509192919290803590602001908201803590602001908080601f0160208091040260200160405190810160405280939291908181526020018383808284378201915050505050509192919290803590602001908201803590602001908080601f016020809104026020016040519081016040528093929190818152602001838380828437820191505050505050919291929080359060200190929190505050612888565b005b34801561086e57600080fd5b50610973600480360381019080803590602001908201803590602001908080601f0160208091040260200160405190810160405280939291908181526020018383808284378201915050505050509192919290803590602001908201803590602001908080601f0160208091040260200160405190810160405280939291908181526020018383808284378201915050505050509192919290803590602001908201803590602001908080601f0160208091040260200160405190810160405280939291908181526020018383808284378201915050505050509192919290803590602001909291908035906020019092919080359060200190929190505050612e5b565b005b34801561098157600080fd5b50610a72600480360381019080803590602001908201803590602001908080601f0160208091040260200160405190810160405280939291908181526020018383808284378201915050505050509192919290803590602001908201803590602001908080601f0160208091040260200160405190810160405280939291908181526020018383808284378201915050505050509192919290803590602001908201803590602001908080601f0160208091040260200160405190810160405280939291908181526020018383808284378201915050505050509192919290803590602001909291905050506134cd565b60405180876000191660001916815260200186600019166000191681526020018060200185815260200180602001848152602001838103835287818151815260200191508051906020019080838360005b83811015610ade578082015181840152602081019050610ac3565b50505050905090810190601f168015610b0b5780820380516001836020036101000a031916815260200191505b50838103825285818151815260200191508051906020019080838360005b83811015610b44578082015181840152602081019050610b29565b50505050905090810190601f168015610b715780820380516001836020036101000a031916815260200191505b509850505050505050505060405180910390f35b348015610b9157600080fd5b50610b9a613780565b604051808273ffffffffffffffffffffffffffffffffffffffff1673ffffffffffffffffffffffffffffffffffffffff16815260200191505060405180910390f35b348015610be857600080fd5b50610cd9600480360381019080803590602001908201803590602001908080601f0160208091040260200160405190810160405280939291908181526020018383808284378201915050505050509192919290803590602001908201803590602001908080601f0160208091040260200160405190810160405280939291908181526020018383808284378201915050505050509192919290803590602001908201803590602001908080601f0160208091040260200160405190810160405280939291908181526020018383808284378201915050505050509192919290803590602001909291905050506137a5565b6040518086600019166000191681526020018573ffffffffffffffffffffffffffffffffffffffff1673ffffffffffffffffffffffffffffffffffffffff1681526020018060200184815260200183151515158152602001828103825285818151815260200191508051906020019080838360005b83811015610d69578082015181840152602081019050610d4e565b50505050905090810190601f168015610d965780820380516001836020036101000a031916815260200191505b50965050505050505060405180910390f35b348015610db457600080fd5b50610de9600480360381019080803573ffffffffffffffffffffffffffffffffffffffff169060200190929190505050613ab6565b6040518082815260200191505060405180910390f35b610f35600480360381019080803590602001908201803590602001908080601f0160208091040260200160405190810160405280939291908181526020018383808284378201915050505050509192919290803590602001908201803590602001908080601f0160208091040260200160405190810160405280939291908181526020018383808284378201915050505050509192919290803590602001908201803590602001908080601f016020809104026020016040519081016040528093929190818152602001838380828437820191505050505050919291929080359060200190929190803590602001908201803590602001908080601f0160208091040260200160405190810160405280939291908181526020018383808284378201915050505050509192919290505050613ace565b005b348015610f4357600080fd5b50610fbe600480360381019080803573ffffffffffffffffffffffffffffffffffffffff169060200190929190803590602001908201803590602001908080601f0160208091040260200160405190810160405280939291908181526020018383808284378201915050505050509192919290505050613e67565b005b348015610fcc57600080fd5b506110bd600480360381019080803590602001908201803590602001908080601f0160208091040260200160405190810160405280939291908181526020018383808284378201915050505050509192919290803590602001908201803590602001908080601f0160208091040260200160405190810160405280939291908181526020018383808284378201915050505050509192919290803590602001908201803590602001908080601f016020809104026020016040519081016040528093929190818152602001838380828437820191505050505050919291929080359060200190929190505050613ff1565b60405180826000191660001916815260200191505060405180910390f35b3480156110e757600080fd5b506110f06141b3565b6040518082815260200191505060405180910390f35b34801561111257600080fd5b5061111b6141b9565b6040518082815260200191505060405180910390f35b34801561113d57600080fd5b5061122e600480360381019080803590602001908201803590602001908080601f0160208091040260200160405190810160405280939291908181526020018383808284378201915050505050509192919290803590602001908201803590602001908080601f0160208091040260200160405190810160405280939291908181526020018383808284378201915050505050509192919290803590602001908201803590602001908080601f016020809104026020016040519081016040528093929190818152602001838380828437820191505050505050919291929080359060200190929190505050614233565b60405180876000191660001916815260200180602001806020018060200186815260200185151515158152602001848103845289818151815260200191508051906020019080838360005b83811015611294578082015181840152602081019050611279565b50505050905090810190601f1680156112c15780820380516001836020036101000a031916815260200191505b50848103835288818151815260200191508051906020019080838360005b838110156112fa5780820151818401526020810190506112df565b50505050905090810190601f1680156113275780820380516001836020036101000a031916815260200191505b50848103825287818151815260200191508051906020019080838360005b83811015611360578082015181840152602081019050611345565b50505050905090810190601f16801561138d5780820380516001836020036101000a031916815260200191505b50995050505050505050505060405180910390f35b3480156113ae57600080fd5b506113e3600480360381019080803573ffffffffffffffffffffffffffffffffffffffff1690602001909291905050506144e7565b005b6002818154811015156113f457fe5b90600052602060002090600202016000915090508060000160009054906101000a900473ffffffffffffffffffffffffffffffffffffffff1690806001018054600181600116156101000203166002900480601f0160208091040260200160405190810160405280929190818152602001828054600181600116156101000203166002900480156114c65780601f1061149b576101008083540402835291602001916114c6565b820191906000526020600020905b8154815290600101906020018083116114a957829003601f168201915b5050505050905082565b60008060009054906101000a900473ffffffffffffffffffffffffffffffffffffffff1673ffffffffffffffffffffffffffffffffffffffff163373ffffffffffffffffffffffffffffffffffffffff1614151561152d57600080fd5b6000600160008473ffffffffffffffffffffffffffffffffffffffff1673ffffffffffffffffffffffffffffffffffffffff168152602001908152602001600020541415151561157c57600080fd5b600160008373ffffffffffffffffffffffffffffffffffffffff1673ffffffffffffffffffffffffffffffffffffffff1681526020019081526020016000205490505b60016002805490500381101561172f576002600182018154811015156115e157fe5b90600052602060002090600202016002828154811015156115fe57fe5b90600052602060002090600202016000820160009054906101000a900473ffffffffffffffffffffffffffffffffffffffff168160000160006101000a81548173ffffffffffffffffffffffffffffffffffffffff021916908373ffffffffffffffffffffffffffffffffffffffff1602179055506001820181600101908054600181600116156101000203166002900461169a929190614f74565b5090505080600160006002848154811015156116b257fe5b906000526020600020906002020160000160009054906101000a900473ffffffffffffffffffffffffffffffffffffffff1673ffffffffffffffffffffffffffffffffffffffff1673ffffffffffffffffffffffffffffffffffffffff1681526020019081526020016000208190555080806001019150506115bf565b600160008373ffffffffffffffffffffffffffffffffffffffff1673ffffffffffffffffffffffffffffffffffffffff16815260200190815260200160002060009055600260016002805490500381548110151561178957fe5b9060005260206000209060020201600080820160006101000a81549073ffffffffffffffffffffffffffffffffffffffff02191690556001820160006117cf9190614ffb565b505060028054809190600190036117e69190615043565b505050565b600080600080600080600080600080600160003373ffffffffffffffffffffffffffffffffffffffff1673ffffffffffffffffffffffffffffffffffffffff1681526020019081526020016000205414158061189357506000809054906101000a900473ffffffffffffffffffffffffffffffffffffffff1673ffffffffffffffffffffffffffffffffffffffff163373ffffffffffffffffffffffffffffffffffffffff16145b151561189e57600080fd5b6118aa8d8d8d8d614585565b98506004600360008b60001916600019168152602001908152602001600020548154811015156118d657fe5b90600052602060002090600c020197508760050160009054906101000a900460ff16151561190357600080fd5b61190f8d8d8d8d614712565b96508760080160003373ffffffffffffffffffffffffffffffffffffffff1673ffffffffffffffffffffffffffffffffffffffff1681526020019081526020016000205460001916876000191614151561196857600080fd5b60006001028860080160003373ffffffffffffffffffffffffffffffffffffffff1673ffffffffffffffffffffffffffffffffffffffff1681526020019081526020016000208160001916905550876009016000886000191660001916815260200190815260200160002054955087600a01868154811015156119e757fe5b90600052602060002090600902019450611aa389866002016002016000018054600181600116156101000203166002900480601f016020809104026020016040519081016040528092919081815260200182805460018160011615610100020316600290048015611a995780601f10611a6e57610100808354040283529160200191611a99565b820191906000526020600020905b815481529060010190602001808311611a7c57829003601f168201915b5050505050614748565b9350611abe60065489600b01546149a690919063ffffffff16565b925083831115611b4257611adf8389600b01546149e190919063ffffffff16565b9150611af88560010154836149fa90919063ffffffff16565b90503373ffffffffffffffffffffffffffffffffffffffff166108fc829081150290604051600060405180830381858888f19350505050158015611b40573d6000803e3d6000fd5b505b50505050505050505050505050565b60065481565b600080600080600080600160003373ffffffffffffffffffffffffffffffffffffffff1673ffffffffffffffffffffffffffffffffffffffff16815260200190815260200160002054141580611bf957506000809054906101000a900473ffffffffffffffffffffffffffffffffffffffff1673ffffffffffffffffffffffffffffffffffffffff163373ffffffffffffffffffffffffffffffffffffffff16145b1515611c0457600080fd5b611c1089898989614585565b9450600360008660001916600019168152602001908152602001600020549350600084141580611c6757508460001916600485815481101515611c4f57fe5b90600052602060002090600c02016000015460001916145b1515611c7257600080fd5b600484815481101515611c8157fe5b90600052602060002090600c02016004015442101515611ca057600080fd5b600092505b600484815481101515611cb457fe5b90600052602060002090600c020160070180549050831015611df957600484815481101515611cdf57fe5b90600052602060002090600c020160070183815481101515611cfd57fe5b906000526020600020906005020160040160009054906101000a900460ff161515611dec57600484815481101515611d3157fe5b90600052602060002090600c020160070183815481101515611d4f57fe5b9060005260206000209060050201915060018260040160006101000a81548160ff0219169083151502179055508160010160009054906101000a900473ffffffffffffffffffffffffffffffffffffffff1673ffffffffffffffffffffffffffffffffffffffff166108fc83600301549081150290604051600060405180830381858888f19350505050158015611dea573d6000803e3d6000fd5b505b8280600101935050611ca5565b6003600086600019166000191681526020019081526020016000205490505b600160048054905003811015611fac57600460018201815481101515611e3a57fe5b90600052602060002090600c0201600482815481101515611e5757fe5b90600052602060002090600c02016000820154816000019060001916905560018201816001019080546001816001161561010002031660029004611e9c929190614f74565b5060028201816002019080546001816001161561010002031660029004611ec4929190614f74565b5060038201816003019080546001816001161561010002031660029004611eec929190614f74565b50600482015481600401556005820160009054906101000a900460ff168160050160006101000a81548160ff0219169083151502179055506007820181600701908054611f3a929190615075565b50600a820181600a01908054611f519291906151a3565b50600b82015481600b01559050508060036000600484815481101515611f7357fe5b90600052602060002090600c02016000015460001916600019168152602001908152602001600020819055508080600101915050611e18565b600360008660001916600019168152602001908152602001600020600090556004600160048054905003815481101515611fe257fe5b90600052602060002090600c02016000808201600090556001820160006120099190614ffb565b6002820160006120199190614ffb565b6003820160006120299190614ffb565b60048201600090556005820160006101000a81549060ff02191690556007820160006120559190615301565b600a820160006120659190615325565b600b820160009055505060048054809190600190036120849190615349565b50505050505050505050565b6000809054906101000a900473ffffffffffffffffffffffffffffffffffffffff1673ffffffffffffffffffffffffffffffffffffffff163373ffffffffffffffffffffffffffffffffffffffff161415156120eb57600080fd5b6000809054906101000a900473ffffffffffffffffffffffffffffffffffffffff1673ffffffffffffffffffffffffffffffffffffffff16ff5b60048181548110151561213457fe5b90600052602060002090600c0201600091509050806000015490806001018054600181600116156101000203166002900480601f0160208091040260200160405190810160405280929190818152602001828054600181600116156101000203166002900480156121e65780601f106121bb576101008083540402835291602001916121e6565b820191906000526020600020905b8154815290600101906020018083116121c957829003601f168201915b505050505090806002018054600181600116156101000203166002900480601f0160208091040260200160405190810160405280929190818152602001828054600181600116156101000203166002900480156122845780601f1061225957610100808354040283529160200191612284565b820191906000526020600020905b81548152906001019060200180831161226757829003601f168201915b505050505090806003018054600181600116156101000203166002900480601f0160208091040260200160405190810160405280929190818152602001828054600181600116156101000203166002900480156123225780601f106122f757610100808354040283529160200191612322565b820191906000526020600020905b81548152906001019060200180831161230557829003601f168201915b5050505050908060040154908060050160009054906101000a900460ff169080600b0154905087565b6000806000806000806000806000806123668e8e8e8e614585565b99506004600360008c600019166000191681526020019081526020016000205481548110151561239257fe5b90600052602060002090600c020198508860050160009054906101000a900460ff1615156123bf57600080fd5b8860060160003373ffffffffffffffffffffffffffffffffffffffff1673ffffffffffffffffffffffffffffffffffffffff168152602001908152602001600020549750886007018881548110151561241457fe5b906000526020600020906005020196508660040160009054906101000a900460ff1615801561249257503373ffffffffffffffffffffffffffffffffffffffff168760010160009054906101000a900473ffffffffffffffffffffffffffffffffffffffff1673ffffffffffffffffffffffffffffffffffffffff16145b151561249d57600080fd5b6124a98e8e8e8e614712565b9550886009016000876000191660001916815260200190815260200160002054945088600a01858154811015156124dc57fe5b9060005260206000209060090201600201935060018760040160006101000a81548160ff0219169083151502179055508360020160000160405160200180828054600181600116156101000203166002900480156125715780601f1061254f576101008083540402835291820191612571565b820191906000526020600020905b81548152906001019060200180831161255d575b50509150506040516020818303038152906040526040518082805190602001908083835b6020831015156125ba5780518252602082019150602081019050602083039250612595565b6001836020036101000a03801982511681845116808217855250505050505090500191505060405180910390206000191687600201604051602001808280546001816001161561010002031660029004801561264d5780601f1061262b57610100808354040283529182019161264d565b820191906000526020600020905b815481529060010190602001808311612639575b50509150506040516020818303038152906040526040518082805190602001908083835b6020831015156126965780518252602082019150602081019050602083039250612671565b6001836020036101000a0380198251168184511680821785525050505050509050019150506040518091039020600019161415612860576127768a856002016000018054600181600116156101000203166002900480601f01602080910402602001604051908101604052809291908181526020018280546001816001161561010002031660029004801561276c5780601f106127415761010080835404028352916020019161276c565b820191906000526020600020905b81548152906001019060200180831161274f57829003601f168201915b5050505050614748565b92506127916006548a600b01546149a690919063ffffffff16565b915082821115156127ec573373ffffffffffffffffffffffffffffffffffffffff166108fc88600301549081150290604051600060405180830381858888f193505050501580156127e6573d6000803e3d6000fd5b5061285f565b6128156128068489600301546149fa90919063ffffffff16565b836149a690919063ffffffff16565b90503373ffffffffffffffffffffffffffffffffffffffff166108fc829081150290604051600060405180830381858888f1935050505015801561285d573d6000803e3d6000fd5b505b5b5050505050505050505050505050565b60036020528060005260406000206000915090505481565b600080600080600080600061289f8b8b8b8b614585565b96506003600088600019166000191681526020019081526020016000205495506000861415806128f6575086600019166004878154811015156128de57fe5b90600052602060002090600c02016000015460001916145b151561290157600080fd5b60048681548110151561291057fe5b90600052602060002090600c020160060160003373ffffffffffffffffffffffffffffffffffffffff1673ffffffffffffffffffffffffffffffffffffffff1681526020019081526020016000205494506000851415806129fa57503373ffffffffffffffffffffffffffffffffffffffff1660048781548110151561299257fe5b90600052602060002090600c0201600701868154811015156129b057fe5b906000526020600020906005020160010160009054906101000a900473ffffffffffffffffffffffffffffffffffffffff1673ffffffffffffffffffffffffffffffffffffffff16145b1515612a0557600080fd5b600486815481101515612a1457fe5b90600052602060002090600c02016004015442101515612a3357600080fd5b600486815481101515612a4257fe5b90600052602060002090600c020160070185815481101515612a6057fe5b9060005260206000209060050201600301549350612a9e843073ffffffffffffffffffffffffffffffffffffffff16316149e190919063ffffffff16565b9250600486815481101515612aaf57fe5b90600052602060002090600c020160070191508490505b6001828054905003811015612c97578160018201815481101515612ae657fe5b90600052602060002090600502018282815481101515612b0257fe5b9060005260206000209060050201600082015481600001906000191690556001820160009054906101000a900473ffffffffffffffffffffffffffffffffffffffff168160010160006101000a81548173ffffffffffffffffffffffffffffffffffffffff021916908373ffffffffffffffffffffffffffffffffffffffff16021790555060028201816002019080546001816001161561010002031660029004612bae929190614f74565b50600382015481600301556004820160009054906101000a900460ff168160040160006101000a81548160ff02191690831515021790555090505080600487815481101515612bf957fe5b90600052602060002090600c020160060160008484815481101515612c1a57fe5b906000526020600020906005020160010160009054906101000a900473ffffffffffffffffffffffffffffffffffffffff1673ffffffffffffffffffffffffffffffffffffffff1673ffffffffffffffffffffffffffffffffffffffff168152602001908152602001600020819055508080600101915050612ac6565b600486815481101515612ca657fe5b90600052602060002090600c020160060160003373ffffffffffffffffffffffffffffffffffffffff1673ffffffffffffffffffffffffffffffffffffffff16815260200190815260200160002060009055816001838054905003815481101515612d0d57fe5b90600052602060002090600502016000808201600090556001820160006101000a81549073ffffffffffffffffffffffffffffffffffffffff0219169055600282016000612d5b9190614ffb565b60038201600090556004820160006101000a81549060ff0219169055505081805480919060019003612d8d919061537b565b50612dc184600488815481101515612da157fe5b90600052602060002090600c0201600b01546149e190919063ffffffff16565b600487815481101515612dd057fe5b90600052602060002090600c0201600b01819055503373ffffffffffffffffffffffffffffffffffffffff166108fc859081150290604051600060405180830381858888f19350505050158015612e2b573d6000803e3d6000fd5b50823073ffffffffffffffffffffffffffffffffffffffff1631141515612e4e57fe5b5050505050505050505050565b600080612e666153ad565b612e6e6153ad565b6000806000806000600160003373ffffffffffffffffffffffffffffffffffffffff1673ffffffffffffffffffffffffffffffffffffffff16815260200190815260200160002054141580612f0f57506000809054906101000a900473ffffffffffffffffffffffffffffffffffffffff1673ffffffffffffffffffffffffffffffffffffffff163373ffffffffffffffffffffffffffffffffffffffff16145b1515612f1a57600080fd5b612f268e8e8e8e614585565b97506004600360008a6000191660001916815260200190815260200160002054815481101515612f5257fe5b90600052602060002090600c020196508760001916876000015460001916141515612f7c57600080fd5b605f8b0142118015612f9d57508660050160009054906101000a900460ff16155b1515612fa857600080fd5b60006001028760080160003373ffffffffffffffffffffffffffffffffffffffff1673ffffffffffffffffffffffffffffffffffffffff1681526020019081526020016000205460001916141515612fff57600080fd5b604080519081016040528060206040519081016040528060008152508152602001600081525095506040805190810160405280602060405190810160405280600081525081526020016000815250945060009350888a10151561309c5760408051908101604052808f81526020018b815250955060408051908101604052808e81526020018a8152509450888a141561309757600193505b6130cb565b60408051908101604052808e81526020018a815250955060408051908101604052808f81526020018b81525094505b8786600001518760200151876000015188602001518860405160200180876000191660001916815260200186805190602001908083835b6020831015156131275780518252602082019150602081019050602083039250613102565b6001836020036101000a03801982511681845116808217855250505050505090500185815260200184805190602001908083835b602083101515613180578051825260208201915060208101905060208303925061315b565b6001836020036101000a03801982511681845116808217855250505050505090500183815260200182151515157f010000000000000000000000000000000000000000000000000000000000000002815260010196505050505050506040516020818303038152906040526040518082805190602001908083835b60208310151561322057805182526020820191506020810190506020830392506131fb565b6001836020036101000a03801982511681845116808217855250505050505090500191505060405180910390209250828760080160003373ffffffffffffffffffffffffffffffffffffffff1673ffffffffffffffffffffffffffffffffffffffff168152602001908152602001600020816000191690555086600901600084600019166000191681526020019081526020016000205491506000821480156132f6575086600a01828154811015156132d557fe5b906000526020600020906009020160000160009054906101000a900460ff16155b156134735786600a018054905087600901600085600019166000191681526020019081526020016000208190555086600a01805480919060010161333a91906153c7565b915060a060405190810160405280846000191681526020018960001916815260200187815260200186815260200185151581525087600a018381548110151561337f57fe5b9060005260206000209060090201600201600082015181600001906000191690556020820151816001019060001916905560408201518160020160008201518160000190805190602001906133d59291906153f9565b5060208201518160010155505060608201518160040160008201518160000190805190602001906134079291906153f9565b5060208201518160010155505060808201518160060160006101000a81548160ff021916908315150217905550905050600187600a018381548110151561344a57fe5b906000526020600020906009020160000160006101000a81548160ff0219169083151502179055505b86600a018281548110151561348457fe5b906000526020600020906009020190506134ac60018260010154614a1590919063ffffffff16565b81600101819055506134bd88614a33565b5050505050505050505050505050565b6000806060600060606000806000806000806134eb8f8f8f8f614585565b945060046003600087600019166000191681526020019081526020016000205481548110151561351757fe5b90600052602060002090600c020193508360050160009054906101000a900460ff16151561354457600080fd5b6000925083600a01600081548110151561355a57fe5b90600052602060002090600902016002019150600090505b83600a0180549050811015613602578284600a018281548110151561359357fe5b90600052602060002090600902016001015411156135f55783600a01818154811015156135bc57fe5b906000526020600020906009020160010154925083600a01818154811015156135e157fe5b906000526020600020906009020160020191505b8080600101915050613572565b81600001548260010154836002016000018460020160010154856004016000018660040160010154838054600181600116156101000203166002900480601f0160208091040260200160405190810160405280929190818152602001828054600181600116156101000203166002900480156136bf5780601f10613694576101008083540402835291602001916136bf565b820191906000526020600020905b8154815290600101906020018083116136a257829003601f168201915b50505050509350818054600181600116156101000203166002900480601f01602080910402602001604051908101604052809291908181526020018280546001816001161561010002031660029004801561375b5780601f106137305761010080835404028352916020019161375b565b820191906000526020600020905b81548152906001019060200180831161373e57829003601f168201915b505050505091509a509a509a509a509a509a5050505050509499939850945094509450565b6000809054906101000a900473ffffffffffffffffffffffffffffffffffffffff1681565b60008060606000806000806000806137bf8d8d8d8d614585565b9350600360008560001916600019168152602001908152602001600020549250600083141580613816575083600019166004848154811015156137fe57fe5b90600052602060002090600c02016000015460001916145b151561382157600080fd5b60048381548110151561383057fe5b90600052602060002090600c020160060160003373ffffffffffffffffffffffffffffffffffffffff1673ffffffffffffffffffffffffffffffffffffffff16815260200190815260200160002054915060008214158061391a57503373ffffffffffffffffffffffffffffffffffffffff166004848154811015156138b257fe5b90600052602060002090600c0201600701838154811015156138d057fe5b906000526020600020906005020160010160009054906101000a900473ffffffffffffffffffffffffffffffffffffffff1673ffffffffffffffffffffffffffffffffffffffff16145b151561392557600080fd5b60048381548110151561393457fe5b90600052602060002090600c02016007018281548110151561395257fe5b906000526020600020906005020190508060010160009054906101000a900473ffffffffffffffffffffffffffffffffffffffff1673ffffffffffffffffffffffffffffffffffffffff163373ffffffffffffffffffffffffffffffffffffffff161415156139c057600080fd5b838160010160009054906101000a900473ffffffffffffffffffffffffffffffffffffffff168260020183600301548460040160009054906101000a900460ff16828054600181600116156101000203166002900480601f016020809104026020016040519081016040528092919081815260200182805460018160011615610100020316600290048015613a965780601f10613a6b57610100808354040283529160200191613a96565b820191906000526020600020905b815481529060010190602001808311613a7957829003601f168201915b505050505092509850985098509850985050505050945094509450945094565b60016020528060005260406000206000915090505481565b600080600080613ae18989898989614b24565b9350600484815481101515613af257fe5b90600052602060002090600c020192508260060160003373ffffffffffffffffffffffffffffffffffffffff1673ffffffffffffffffffffffffffffffffffffffff1681526020019081526020016000205491506000821415613bb55782600701805490508360060160003373ffffffffffffffffffffffffffffffffffffffff1673ffffffffffffffffffffffffffffffffffffffff16815260200190815260200160002081905550826007018054809190600101613bb29190615479565b91505b8260070182815481101515613bc657fe5b906000526020600020906005020190508260000154816000018160001916905550338160010160006101000a81548173ffffffffffffffffffffffffffffffffffffffff021916908373ffffffffffffffffffffffffffffffffffffffff16021790555060008160040160006101000a81548160ff021916908315150217905550826001016040516020018082805460018160011615610100020316600290048015613ca95780601f10613c87576101008083540402835291820191613ca9565b820191906000526020600020905b815481529060010190602001808311613c95575b50509150506040516020818303038152906040526040518082805190602001908083835b602083101515613cf25780518252602082019150602081019050602083039250613ccd565b6001836020036101000a038019825116818451168082178552505050505050905001915050604051809103902060001916856040516020018082805190602001908083835b602083101515613d5c5780518252602082019150602081019050602083039250613d37565b6001836020036101000a0380198251168184511680821785525050505050509050019150506040516020818303038152906040526040518082805190602001908083835b602083101515613dc55780518252602082019150602081019050602083039250613da0565b6001836020036101000a0380198251168184511680821785525050505050509050019150506040518091039020600019161415613e1a5788816002019080519060200190613e149291906154ab565b50613e34565b87816002019080519060200190613e329291906154ab565b505b348160030181905550613e543484600b0154614a1590919063ffffffff16565b83600b0181905550505050505050505050565b6000806000809054906101000a900473ffffffffffffffffffffffffffffffffffffffff1673ffffffffffffffffffffffffffffffffffffffff163373ffffffffffffffffffffffffffffffffffffffff16141515613ec557600080fd5b600160008573ffffffffffffffffffffffffffffffffffffffff1673ffffffffffffffffffffffffffffffffffffffff1681526020019081526020016000205491506000821415613f7057600280549050600160008673ffffffffffffffffffffffffffffffffffffffff1673ffffffffffffffffffffffffffffffffffffffff1681526020019081526020016000208190555060028054809190600101613f6d9190615043565b91505b600282815481101515613f7f57fe5b90600052602060002090600202019050838160000160006101000a81548173ffffffffffffffffffffffffffffffffffffffff021916908373ffffffffffffffffffffffffffffffffffffffff16021790555082816001019080519060200190613fea9291906154ab565b5050505050565b600080600080600160003373ffffffffffffffffffffffffffffffffffffffff1673ffffffffffffffffffffffffffffffffffffffff1681526020019081526020016000205414158061409057506000809054906101000a900473ffffffffffffffffffffffffffffffffffffffff1673ffffffffffffffffffffffffffffffffffffffff163373ffffffffffffffffffffffffffffffffffffffff16145b151561409b57600080fd5b6140a787878787614585565b9250600360008460001916600019168152602001908152602001600020549150600082141561410c5760048054905060036000856000191660001916815260200190815260200160002081905550600480548091906001016141099190615349565b91505b60048281548110151561411b57fe5b90600052602060002090600c0201905082816000018160001916905550868160010190805190602001906141509291906154ab565b50858160020190805190602001906141699291906154ab565b50848160030190805190602001906141829291906154ab565b5083816004018190555060008160050160006101000a81548160ff0219169083151502179055505050949350505050565b60055481565b60008060009054906101000a900473ffffffffffffffffffffffffffffffffffffffff1673ffffffffffffffffffffffffffffffffffffffff163373ffffffffffffffffffffffffffffffffffffffff1614151561421657600080fd5b3073ffffffffffffffffffffffffffffffffffffffff1631905090565b60006060806060600080600080600061424e8d8d8d8d614585565b92506003600084600019166000191681526020019081526020016000205491506000821415806142a55750826000191660048381548110151561428d57fe5b90600052602060002090600c02016000015460001916145b15156142b057600080fd5b6004828154811015156142bf57fe5b90600052602060002090600c02019050806000015481600101826002018360030184600401548560050160009054906101000a900460ff16848054600181600116156101000203166002900480601f01602080910402602001604051908101604052809291908181526020018280546001816001161561010002031660029004801561438c5780601f106143615761010080835404028352916020019161438c565b820191906000526020600020905b81548152906001019060200180831161436f57829003601f168201915b50505050509450838054600181600116156101000203166002900480601f0160208091040260200160405190810160405280929190818152602001828054600181600116156101000203166002900480156144285780601f106143fd57610100808354040283529160200191614428565b820191906000526020600020905b81548152906001019060200180831161440b57829003601f168201915b50505050509350828054600181600116156101000203166002900480601f0160208091040260200160405190810160405280929190818152602001828054600181600116156101000203166002900480156144c45780601f10614499576101008083540402835291602001916144c4565b820191906000526020600020905b8154815290600101906020018083116144a757829003601f168201915b505050505092509850985098509850985098505050509499939850945094509450565b6000809054906101000a900473ffffffffffffffffffffffffffffffffffffffff1673ffffffffffffffffffffffffffffffffffffffff163373ffffffffffffffffffffffffffffffffffffffff1614151561454257600080fd5b806000806101000a81548173ffffffffffffffffffffffffffffffffffffffff021916908373ffffffffffffffffffffffffffffffffffffffff16021790555050565b6000848484846040516020018085805190602001908083835b6020831015156145c3578051825260208201915060208101905060208303925061459e565b6001836020036101000a03801982511681845116808217855250505050505090500184805190602001908083835b60208310151561461657805182526020820191506020810190506020830392506145f1565b6001836020036101000a03801982511681845116808217855250505050505090500183805190602001908083835b6020831015156146695780518252602082019150602081019050602083039250614644565b6001836020036101000a0380198251168184511680821785525050505050509050018281526020019450505050506040516020818303038152906040526040518082805190602001908083835b6020831015156146db57805182526020820191506020810190506020830392506146b6565b6001836020036101000a03801982511681845116808217855250505050505090500191505060405180910390209050949350505050565b6000806000606060006060600061472b8b8b8b8b6134cd565b955095509550955095509550859650505050505050949350505050565b60008060008060046003600088600019166000191681526020019081526020016000205481548110151561477857fe5b90600052602060002090600c0201925060009350600091505b826007018054905082101561499d5782600701828154811015156147b157fe5b90600052602060002090600502019050846040516020018082805190602001908083835b6020831015156147fa57805182526020820191506020810190506020830392506147d5565b6001836020036101000a0380198251168184511680821785525050505050509050019150506040516020818303038152906040526040518082805190602001908083835b602083101515614863578051825260208201915060208101905060208303925061483e565b6001836020036101000a0380198251168184511680821785525050505050509050019150506040518091039020600019168160020160405160200180828054600181600116156101000203166002900480156148f65780601f106148d45761010080835404028352918201916148f6565b820191906000526020600020905b8154815290600101906020018083116148e2575b50509150506040516020818303038152906040526040518082805190602001908083835b60208310151561493f578051825260208201915060208101905060208303925061491a565b6001836020036101000a03801982511681845116808217855250505050505090500191505060405180910390206000191614156149905761498d816003015485614a1590919063ffffffff16565b93505b8180600101925050614791565b50505092915050565b60008060008414156149bb57600091506149da565b82840290508284828115156149cc57fe5b041415156149d657fe5b8091505b5092915050565b60008282111515156149ef57fe5b818303905092915050565b6000808284811515614a0857fe5b0490508091505092915050565b6000808284019050838110151515614a2957fe5b8091505092915050565b600080600080600080600360008860001916600019168152602001908152602001600020549550600486815481101515614a6957fe5b90600052602060002090600c0201945060009350600092505b84600a0180549050831015614ad85784600a0183815481101515614aa257fe5b90600052602060002090600902019150614ac9826001015485614a1590919063ffffffff16565b93508280600101935050614a82565b614af0600280549050856149fa90919063ffffffff16565b905060055481101515614b1b5760018560050160006101000a81548160ff0219169083151502179055505b50505050505050565b600080614b3387878787614585565b9050600360008260001916600019168152602001908152602001600020549150600082141580614b8a57508060001916600483815481101515614b7257fe5b90600052602060002090600c02016000015460001916145b8015614bb55750600482815481101515614ba057fe5b90600052602060002090600c02016004015442105b1515614bc057600080fd5b600482815481101515614bcf57fe5b90600052602060002090600c02016001016040516020018082805460018160011615610100020316600290048015614c3e5780601f10614c1c576101008083540402835291820191614c3e565b820191906000526020600020905b815481529060010190602001808311614c2a575b50509150506040516020818303038152906040526040518082805190602001908083835b602083101515614c875780518252602082019150602081019050602083039250614c62565b6001836020036101000a038019825116818451168082178552505050505050905001915050604051809103902060001916836040516020018082805190602001908083835b602083101515614cf15780518252602082019150602081019050602083039250614ccc565b6001836020036101000a0380198251168184511680821785525050505050509050019150506040516020818303038152906040526040518082805190602001908083835b602083101515614d5a5780518252602082019150602081019050602083039250614d35565b6001836020036101000a0380198251168184511680821785525050505050509050019150506040518091039020600019161480614f5f5750600482815481101515614da157fe5b90600052602060002090600c02016002016040516020018082805460018160011615610100020316600290048015614e105780601f10614dee576101008083540402835291820191614e10565b820191906000526020600020905b815481529060010190602001808311614dfc575b50509150506040516020818303038152906040526040518082805190602001908083835b602083101515614e595780518252602082019150602081019050602083039250614e34565b6001836020036101000a038019825116818451168082178552505050505050905001915050604051809103902060001916836040516020018082805190602001908083835b602083101515614ec35780518252602082019150602081019050602083039250614e9e565b6001836020036101000a0380198251168184511680821785525050505050509050019150506040516020818303038152906040526040518082805190602001908083835b602083101515614f2c5780518252602082019150602081019050602083039250614f07565b6001836020036101000a038019825116818451168082178552505050505050905001915050604051809103902060001916145b1515614f6a57600080fd5b5095945050505050565b828054600181600116156101000203166002900490600052602060002090601f016020900481019282601f10614fad5780548555614fea565b82800160010185558215614fea57600052602060002091601f016020900482015b82811115614fe9578254825591600101919060010190614fce565b5b509050614ff7919061552b565b5090565b50805460018160011615610100020316600290046000825580601f106150215750615040565b601f01602090049060005260206000209081019061503f919061552b565b5b50565b8154818355818111156150705760020281600202836000526020600020918201910161506f9190615550565b5b505050565b8280548282559060005260206000209060050281019282156151925760005260206000209160050282015b82811115615191578282600082015481600001906000191690556001820160009054906101000a900473ffffffffffffffffffffffffffffffffffffffff168160010160006101000a81548173ffffffffffffffffffffffffffffffffffffffff021916908373ffffffffffffffffffffffffffffffffffffffff16021790555060028201816002019080546001816001161561010002031660029004615148929190614f74565b50600382015481600301556004820160009054906101000a900460ff168160040160006101000a81548160ff0219169083151502179055505050916005019190600501906150a0565b5b50905061519f91906155a6565b5090565b8280548282559060005260206000209060090281019282156152f05760005260206000209160090282015b828111156152ef5782826000820160009054906101000a900460ff168160000160006101000a81548160ff0219169083151502179055506001820154816001015560028201816002016000820154816000019060001916905560018201548160010190600019169055600282018160020160008201816000019080546001816001161561010002031660029004615266929190614f74565b506001820154816001015550506004820181600401600082018160000190805460018160011615610100020316600290046152a2929190614f74565b506001820154816001015550506006820160009054906101000a900460ff168160060160006101000a81548160ff02191690831515021790555050505050916009019190600901906151ce565b5b5090506152fd9190615620565b5090565b508054600082556005029060005260206000209081019061532291906155a6565b50565b50805460008255600902906000526020600020908101906153469190615620565b50565b81548183558181111561537657600c0281600c02836000526020600020918201910161537591906156c4565b5b505050565b8154818355818111156153a8576005028160050283600052602060002091820191016153a791906155a6565b5b505050565b604080519081016040528060608152602001600081525090565b8154818355818111156153f4576009028160090283600052602060002091820191016153f39190615620565b5b505050565b828054600181600116156101000203166002900490600052602060002090601f016020900481019282601f1061543a57805160ff1916838001178555615468565b82800160010185558215615468579182015b8281111561546757825182559160200191906001019061544c565b5b509050615475919061552b565b5090565b8154818355818111156154a6576005028160050283600052602060002091820191016154a591906155a6565b5b505050565b828054600181600116156101000203166002900490600052602060002090601f016020900481019282601f106154ec57805160ff191683800117855561551a565b8280016001018555821561551a579182015b828111156155195782518255916020019190600101906154fe565b5b509050615527919061552b565b5090565b61554d91905b80821115615549576000816000905550600101615531565b5090565b90565b6155a391905b8082111561559f57600080820160006101000a81549073ffffffffffffffffffffffffffffffffffffffff02191690556001820160006155969190614ffb565b50600201615556565b5090565b90565b61561d91905b80821115615619576000808201600090556001820160006101000a81549073ffffffffffffffffffffffffffffffffffffffff02191690556002820160006155f49190614ffb565b60038201600090556004820160006101000a81549060ff0219169055506005016155ac565b5090565b90565b6156c191905b808211156156bd57600080820160006101000a81549060ff0219169055600182016000905560028201600080820160009055600182016000905560028201600080820160006156759190614ffb565b6001820160009055505060048201600080820160006156949190614ffb565b600182016000905550506006820160006101000a81549060ff0219169055505050600901615626565b5090565b90565b61575c91905b80821115615758576000808201600090556001820160006156eb9190614ffb565b6002820160006156fb9190614ffb565b60038201600061570b9190614ffb565b60048201600090556005820160006101000a81549060ff02191690556007820160006157379190615301565b600a820160006157479190615325565b600b82016000905550600c016156ca565b5090565b905600a165627a7a7230582016652803501388bd77c376b94231f255af893c19261757fab85a4ca233c3f4370029",
  "source": "pragma solidity ^0.4.8;\n\n// Utility contract for ownership functionality.\ncontract owned {\n    address public owner;\n\n    constructor() public {\n        owner = msg.sender;\n    }\n\n    modifier onlyOwner {\n        require(msg.sender == owner);\n        _;\n    }\n\n    function transferOwnership(address newOwner) onlyOwner public {\n        owner = newOwner;\n    }\n}\n\n/**\n * @author Ben Hodgson\n *\n * Sport Betting Contract\n *\n * Actors:\n *  1. Owner: contract owner, can add or remove match makers\n *  2. Match makers: can create and remove matches and supply match results\n *  3. Betters: can place bets on matches\n *\n * Betters are allowed one bet per match and can place and remove bets anytime\n * before a match is set to begin. If a betters bet was correct, they can\n * withdraw their reward after the match is marked finished by match makers.\n *\n * Match makers can begin to submit results 95 minutes after a match began.\n * Only match makers can submit results. Once resultsNecessary\n * percent of total match makers (currently 75%) have submitted results for the\n * match the match is marked as finished and no more results can be submitted.\n * The final result is considered to be the most submitted result by match makers.\n * Match makers can only claim a reward if their submission matches the final result.\n *\n * By only allowing 75% of match makers to submit a result it creates an incentive\n * for match makers to expediently submit results to guarantee they receive a\n * reward. Match makers can then withdraw rewards for their correct result submissions\n * once a match is marked as finished. The reward for match makers is taken as\n * 1-resultShare (currently 1%) of the total bet pool split evenly.\n * A reward is only issued to match makers if the remaining resultShare (currently 99%)\n * of the bet pool is greater in value than the winning pool to ensure correct\n * betters don't lose money.\n *\n * This incentivization encourages match makers to prioritize submitting results\n * for more popular matches to maximize returns on larger betting pools. However,\n * this platform is suited for betting on large scale matches that draw\n * large audiences. It is reasonable to assume that match makers\n * will only create matches they believe enough people will want to bet on.\n * By this logic all matches posted will have a reasonable number of betters\n * so it is likely the reward for correct results will be large enough to\n * incentivize match makers to supply results for the match.\n */\ncontract Betting is owned {\n    using SafeMath for uint;\n    // store the match makers\n    mapping (address => uint) public matchMakerIndex;\n    MatchMaker[] public matchMakers;\n    // store the matches\n    mapping (bytes32 => uint) public matchIndex;\n    Match[] public matches;\n    // constants that control contract functionality\n    uint public resultsNecessary = uint(3).div(uint(4));\n    uint public resultShare = uint(99).div(uint(100));\n\n    struct MatchMaker {\n        address id;\n        string name;\n    }\n\n    struct Bet {\n        bytes32 matchHash;\n        address owner;\n        string betOnTeam;\n        uint amount;\n        bool withdrawn;\n    }\n\n    struct Team {\n        string name;\n        uint score;\n    }\n\n    struct Match {\n        bytes32 hash;\n        string homeTeam;\n        string awayTeam;\n        string league;\n        uint startTime;\n        bool finished;\n        mapping (address => uint) betterIndex;\n        Bet[] bets;\n        mapping (address => bytes32) resultHash;\n        mapping (bytes32 => uint) resultCountIndex;\n        Count[] resultCount;\n        uint betPool;\n    }\n\n    struct Result {\n        bytes32 hash;\n        bytes32 matchHash;\n        Team winningTeam;\n        Team losingTeam;\n        bool tie;\n    }\n\n    struct Count {\n        bool valid;\n        uint value;\n        Result matchResult;\n    }\n\n    // Modifier that allows only shareholders to create matches\n    modifier onlyMatchMakers {\n        require(matchMakerIndex[msg.sender] != 0 || msg.sender == owner);\n        _;\n    }\n\n    constructor() public {\n        addMatchMaker(owner, \"Ben\");\n    }\n\n    /**\n     * Add matchMaker\n     *\n     * Make `makerAddress` a match maker named `makerName`\n     *\n     * @param makerAddress ethereum address to be added\n     * @param makerName public name for that match maker\n     */\n    function addMatchMaker(\n        address makerAddress,\n        string makerName\n    ) onlyOwner public {\n        // Check existence of matchMaker.\n        uint index = matchMakerIndex[makerAddress];\n        if (index == 0) {\n            // Add matchMaker to ID list.\n            matchMakerIndex[makerAddress] = matchMakers.length;\n            // index gets matchMakers.length, then matchMakers.length++\n            index = matchMakers.length++;\n        }\n\n        // Create and update storage\n        MatchMaker storage m = matchMakers[index];\n        m.id = makerAddress;\n        m.name = makerName;\n    }\n\n    /**\n     * Remove match maker\n     *\n     * @notice Remove match maker designation from `makerAddress` address.\n     *\n     * @param makerAddress ethereum address to be removed\n     */\n    function removeMatchMaker(address makerAddress) onlyOwner public {\n        require(matchMakerIndex[makerAddress] != 0);\n\n        // Rewrite the match maker storage to move the 'gap' to the end.\n        for (uint i = matchMakerIndex[makerAddress];\n                i < matchMakers.length - 1; i++) {\n            matchMakers[i] = matchMakers[i+1];\n            matchMakerIndex[matchMakers[i].id] = i;\n        }\n\n        // Delete the last match maker\n        delete matchMakerIndex[makerAddress];\n        delete matchMakers[matchMakers.length-1];\n        matchMakers.length--;\n    }\n\n    /**\n     * Allows only match makers to create a match\n     *\n     * @param homeTeam the home team competing in the match\n     * @param awayTeam the away team competing in the match\n     * @param league the match pertains to\n     * @param startTime the time the match begins\n     */\n    function createMatch(\n        string homeTeam,\n        string awayTeam,\n        string league,\n        uint startTime\n    ) onlyMatchMakers public returns (bytes32 matchHash) {\n        matchHash = getMatchHash(homeTeam, awayTeam, league, startTime);\n        uint index = matchIndex[matchHash];\n        if (index == 0) {\n            matchIndex[matchHash] = matches.length;\n            index = matches.length++;\n        }\n\n        // Create and update storage\n        Match storage newMatch = matches[index];\n        newMatch.hash = matchHash;\n        newMatch.homeTeam = homeTeam;\n        newMatch.awayTeam = awayTeam;\n        newMatch.league = league;\n        newMatch.startTime = startTime;\n        newMatch.finished = false;\n    }\n\n    /**\n     * Allows only match makers to remove a match. Refunds all bets placed\n     * on the match.\n     *\n     * @param homeTeam the home team competing in the match to be removed\n     * @param awayTeam the away team competing in the match to be removed\n     * @param league the league the match to be removed pertains to\n     * @param startTime the time the match to be removed begins\n     */\n    function removeMatch(\n        string homeTeam,\n        string awayTeam,\n        string league,\n        uint startTime\n    ) onlyMatchMakers public {\n        bytes32 matchHash = getMatchHash(homeTeam, awayTeam, league, startTime);\n        uint index = matchIndex[matchHash];\n        require(index != 0 || matches[index].hash == matchHash);\n        // require the match hasn't started\n        require(now < matches[index].startTime);\n\n        // refund bets\n        for (uint b = 0; b < matches[index].bets.length; b++) {\n            if (!matches[index].bets[b].withdrawn) {\n                Bet storage thisBet = matches[index].bets[b];\n                thisBet.withdrawn = true;\n                thisBet.owner.transfer(thisBet.amount);\n            }\n        }\n\n        // Rewrite the matches storage to move the 'gap' to the end.\n        for (uint i = matchIndex[matchHash];\n                i < matches.length - 1; i++) {\n            matches[i] = matches[i+1];\n            matchIndex[matches[i].hash] = i;\n        }\n\n        // Delete the last match\n        delete matchIndex[matchHash];\n        delete matches[matches.length-1];\n        matches.length--;\n    }\n\n    /**\n     * Returns the match information that bears the hash generated with the user\n     * input parameters\n     *\n     * @param homeTeam the home team competing in the match to be removed\n     * @param awayTeam the away team competing in the match to be removed\n     * @param league the league the match to be removed pertains to\n     * @param startTime the time the match to be removed begins\n     */\n    function getMatch(\n        string homeTeam,\n        string awayTeam,\n        string league,\n        uint startTime\n    ) view public returns(bytes32, string, string, string, uint, bool) {\n        bytes32 matchHash = getMatchHash(homeTeam, awayTeam, league, startTime);\n        uint index = matchIndex[matchHash];\n        require(index != 0 || matches[index].hash == matchHash);\n        Match storage retMatch = matches[index];\n        return (\n            retMatch.hash,\n            retMatch.homeTeam,\n            retMatch.awayTeam,\n            retMatch.league,\n            retMatch.startTime,\n            retMatch.finished\n        );\n    }\n\n    /**\n     * Allow only match makers to submit a result for a match\n     *\n     * @param homeTeam the home team competing in the match to be removed\n     * @param awayTeam the away team competing in the match to be removed\n     * @param league the league the match to be removed pertains to\n     * @param startTime the time the match to be removed begins\n     * @param homeScore the score reported for the homeTeam\n     * @param awayScore the score reported for the awayTeam\n     */\n    function submitMatchResult(\n        string homeTeam,\n        string awayTeam,\n        string league,\n        uint startTime,\n        uint homeScore,\n        uint awayScore\n    ) onlyMatchMakers public {\n        bytes32 matchHash = getMatchHash(homeTeam, awayTeam, league, startTime);\n        Match storage thisMatch = matches[matchIndex[matchHash]];\n        // make sure match is valid\n        require(thisMatch.hash == matchHash);\n        // require match is finished but a result is not finalized\n        require(now > startTime + 95 && !thisMatch.finished);\n        // only allow one result submission per address\n        require(thisMatch.resultHash[msg.sender] == 0);\n        // Determine winning and losing teams\n        Team memory winningTeam = Team(\"\", 0);\n        Team memory losingTeam = Team(\"\", 0);\n        bool tie = false;\n        if (homeScore >= awayScore) {\n            winningTeam = Team(homeTeam, homeScore);\n            losingTeam = Team(awayTeam, awayScore);\n            if (homeScore == awayScore) {\n                tie = true;\n            }\n        }\n        else {\n            winningTeam = Team(awayTeam, awayScore);\n            losingTeam = Team(homeTeam, homeScore);\n        }\n        // hash the result information\n        bytes32 resultKey = keccak256(abi.encodePacked(\n            matchHash,\n            winningTeam.name,\n            winningTeam.score,\n            losingTeam.name,\n            losingTeam.score,\n            tie\n        ));\n        // map the sender's address to the result hash\n        thisMatch.resultHash[msg.sender] = resultKey;\n        // map the result hash to an index in the result counter array\n        uint countIndex = thisMatch.resultCountIndex[resultKey];\n        if (countIndex == 0 && !thisMatch.resultCount[countIndex].valid) {\n            // Add result to ID list\n            thisMatch.resultCountIndex[resultKey] = thisMatch.resultCount.length;\n            countIndex = thisMatch.resultCount.length++;\n            // identify the result and mark it valid\n            thisMatch.resultCount[countIndex].matchResult = Result(\n                resultKey, matchHash, winningTeam, losingTeam, tie);\n            thisMatch.resultCount[countIndex].valid = true;\n        }\n        // add 1 to the number of people who submitted this result\n        Count storage thisCount = thisMatch.resultCount[countIndex];\n        thisCount.value = thisCount.value.add(uint(1));\n        // check if a sufficient amount of results have been submitted\n        processResults(matchHash);\n    }\n\n    /**\n     * Allows only match makers that submitted a correct result for a match\n     * withdraw a small reward taken from the bet pool for the match.\n     *\n     * @param homeTeam the home team competing in the match to be removed\n     * @param awayTeam the away team competing in the match to be removed\n     * @param league the league the match to be removed pertains to\n     * @param startTime the time the match to be removed begins\n     */\n    function withdrawResult(\n        string homeTeam,\n        string awayTeam,\n        string league,\n        uint startTime\n    ) onlyMatchMakers public {\n        bytes32 matchHash = getMatchHash(homeTeam, awayTeam, league, startTime);\n        Match storage thisMatch = matches[matchIndex[matchHash]];\n        // require the match is finished\n        require(thisMatch.finished);\n        bytes32 finalResultHash = findFinalResultHash(homeTeam, awayTeam, league, startTime);\n        // require they submitted the correct result\n        require(finalResultHash == thisMatch.resultHash[msg.sender]);\n        // reset storage to only allow one result withdrawal\n        thisMatch.resultHash[msg.sender] = bytes32(0);\n        uint countIndex = thisMatch.resultCountIndex[finalResultHash];\n        Count storage resultCount = thisMatch.resultCount[countIndex];\n        uint winningPool = calculateWinningPool(matchHash,\n                                    resultCount.matchResult.winningTeam.name);\n        uint rewardPool = thisMatch.betPool.mul(resultShare);\n        // reward if there are enough losers to guarantee winners don't lose money\n        if (rewardPool > winningPool) {\n            uint resultPool = thisMatch.betPool.sub(rewardPool);\n            uint reward = resultPool.div(resultCount.value);\n            msg.sender.transfer(reward);\n        }\n    }\n\n    /**\n     * Allows anyone to place a bet on a match specified by the given\n     * function arguments.\n     *\n     * @param homeTeam the home team competing in the match to be removed\n     * @param awayTeam the away team competing in the match to be removed\n     * @param league the league the match to be removed pertains to\n     * @param startTime the time the match to be removed begins\n     * @param betOnTeam the team that is bet to win the match\n     */\n    function placeBet(\n        string homeTeam,\n        string awayTeam,\n        string league,\n        uint startTime,\n        string betOnTeam\n    ) payable public {\n        // make sure this is a valid bet\n        uint index = validateBet(homeTeam, awayTeam, league,\n                startTime, betOnTeam);\n        Match storage matchBetOn = matches[index];\n        uint betIndex = matchBetOn.betterIndex[msg.sender];\n        if (betIndex == 0) {\n            // Add bet owner to ID list.\n            matchBetOn.betterIndex[msg.sender] = matchBetOn.bets.length;\n            betIndex = matchBetOn.bets.length++;\n        }\n\n        // Create and update storage\n        Bet storage b = matchBetOn.bets[betIndex];\n        b.matchHash = matchBetOn.hash;\n        b.owner = msg.sender;\n        b.withdrawn = false;\n\n        // place the bet on the correct team\n        if (keccak256(abi.encodePacked(betOnTeam)) ==\n                keccak256(abi.encodePacked(matchBetOn.homeTeam))) {\n            b.betOnTeam = homeTeam;\n        }\n        else {\n            b.betOnTeam = awayTeam;\n        }\n        b.amount = msg.value;\n        matchBetOn.betPool = matchBetOn.betPool.add(msg.value);\n    }\n\n    /**\n     * Allows anyone to remove a bet they placed on a match\n     *\n     * @notice msg.sender must have a bet placed on the match\n     *\n     * @param homeTeam the home team competing in the match to be removed\n     * @param awayTeam the away team competing in the match to be removed\n     * @param league the league the match to be removed pertains to\n     * @param startTime the time the match to be removed begins\n     */\n    function removeBet(\n        string homeTeam,\n        string awayTeam,\n        string league,\n        uint startTime\n    ) payable public {\n        bytes32 matchHash = getMatchHash(homeTeam, awayTeam, league, startTime);\n        // make sure match is a valid match\n        uint index = matchIndex[matchHash];\n        require(index != 0 || matches[index].hash == matchHash);\n        // require the user has placed a bet on the match\n        uint betIndex = matches[index].betterIndex[msg.sender];\n        require(betIndex != 0 || matches[index].bets[betIndex].owner == msg.sender);\n        // require the match hasn't started\n        require(now < matches[index].startTime);\n\n        // save the bet amount for refunding purposes\n        uint betAmount = matches[index].bets[betIndex].amount;\n        uint expectedBalance = address(this).balance.sub(betAmount);\n\n        // Rewrite the bets storage to move the 'gap' to the end.\n        Bet[] storage addressBets = matches[index].bets;\n        for (uint i = betIndex; i < addressBets.length - 1; i++) {\n            addressBets[i] = addressBets[i+1];\n            matches[index].betterIndex[addressBets[i].owner] = i;\n        }\n\n        // Delete the last bet\n        delete matches[index].betterIndex[msg.sender];\n        delete addressBets[addressBets.length-1];\n        addressBets.length--;\n\n        // refund and update match bet pool\n        matches[index].betPool = matches[index].betPool.sub(betAmount);\n        msg.sender.transfer(betAmount);\n        assert(address(this).balance == expectedBalance);\n    }\n\n    /**\n     * Allows anyone to retrieve the information about a bet they placed on\n     * a specified match. Information returned includes the match hash for the\n     * match the bet was placed on, the bet owner's address, the team bet on,\n     * the amount bet, and whether the bet has been withdrawn.\n     *\n     * @notice msg.sender must have a bet placed on the match\n     *\n     * @param homeTeam the home team competing in the match to be removed\n     * @param awayTeam the away team competing in the match to be removed\n     * @param league the league the match to be removed pertains to\n     * @param startTime the time the match to be removed begins\n     */\n    function getBet(\n        string homeTeam,\n        string awayTeam,\n        string league,\n        uint startTime\n    ) view public returns (bytes32, address, string, uint, bool) {\n        bytes32 matchHash = getMatchHash(homeTeam, awayTeam, league, startTime);\n        // require the bet is on a valid match\n        uint index = matchIndex[matchHash];\n        require(index != 0 || matches[index].hash == matchHash);\n        // require the user has placed a bet on the match\n        uint betIndex = matches[index].betterIndex[msg.sender];\n        require(betIndex != 0 || matches[index].bets[betIndex].owner == msg.sender);\n        // require this is the bet owner\n        Bet storage userBet = matches[index].bets[betIndex];\n        require(msg.sender == userBet.owner);\n        return (\n            matchHash,\n            userBet.owner,\n            userBet.betOnTeam,\n            userBet.amount,\n            userBet.withdrawn\n        );\n    }\n\n    /**\n     * Allows anyone to withdraw a bet. If the bet was correct, a reward is\n     * calculated and transferred to the account of the msg.sender.\n     *\n     * @notice msg.sender must have a bet placed on the match\n     *\n     * @param homeTeam the home team competing in the match to be removed\n     * @param awayTeam the away team competing in the match to be removed\n     * @param league the league the match to be removed pertains to\n     * @param startTime the time the match to be removed begins\n     */\n    function withdrawBet(\n        string homeTeam,\n        string awayTeam,\n        string league,\n        uint startTime\n    ) public {\n        bytes32 matchHash = getMatchHash(homeTeam, awayTeam, league, startTime);\n        // require the match is finished\n        Match storage thisMatch = matches[matchIndex[matchHash]];\n        require(thisMatch.finished);\n        // require the bet hasn't been withdrawn and msg.sender owns a bet\n        uint betIndex = thisMatch.betterIndex[msg.sender];\n        Bet storage userBet = thisMatch.bets[betIndex];\n        require(!userBet.withdrawn && userBet.owner == msg.sender);\n\n        bytes32 finalResultHash = findFinalResultHash(homeTeam, awayTeam, league, startTime);\n        uint resultIndex = thisMatch.resultCountIndex[finalResultHash];\n        Result storage finalResult = thisMatch.resultCount[resultIndex].matchResult;\n        // withdraw Bet\n        userBet.withdrawn = true;\n        // check if they won the Bet\n        if (keccak256(abi.encodePacked(userBet.betOnTeam))\n                == keccak256(abi.encodePacked(finalResult.winningTeam.name))) {\n            uint winningPool = calculateWinningPool(matchHash,\n                                            finalResult.winningTeam.name);\n            uint rewardPool = thisMatch.betPool.mul(resultShare);\n            // if no losers, return bets\n            if (rewardPool <= winningPool) {\n                msg.sender.transfer(userBet.amount);\n            }\n            // otherwise calculate rewards\n            else {\n                uint reward = rewardPool.mul(userBet.amount.div(winningPool));\n                msg.sender.transfer(reward);\n            }\n        }\n    }\n\n    /**\n     * Allows anyone to get the final result information for the specified\n     * match\n     *\n     * @param homeTeam the home team competing in the match to be removed\n     * @param awayTeam the away team competing in the match to be removed\n     * @param league the league the match to be removed pertains to\n     * @param startTime the time the match to be removed begins\n     */\n    function getFinalResult(\n        string homeTeam,\n        string awayTeam,\n        string league,\n        uint startTime\n    ) view public returns (bytes32, bytes32, string, uint, string, uint) {\n        bytes32 matchHash = getMatchHash(homeTeam, awayTeam, league, startTime);\n        // require the match is finished\n        Match storage thisMatch = matches[matchIndex[matchHash]];\n        require(thisMatch.finished);\n        // loop through result counter and determine most numerous result\n        uint maxCounter = 0;\n        Result storage maxResult = thisMatch.resultCount[0].matchResult;\n        for (uint i = 0; i < thisMatch.resultCount.length; i++) {\n            if (thisMatch.resultCount[i].value > maxCounter) {\n                maxCounter = thisMatch.resultCount[i].value;\n                maxResult = thisMatch.resultCount[i].matchResult;\n            }\n        }\n        return (\n            maxResult.hash,\n            maxResult.matchHash,\n            maxResult.winningTeam.name,\n            maxResult.winningTeam.score,\n            maxResult.losingTeam.name,\n            maxResult.losingTeam.score\n        );\n    }\n\n    /**\n     * Returns the hash of the final result for the specified match\n     */\n    function findFinalResultHash(\n        string homeTeam,\n        string awayTeam,\n        string league,\n        uint startTime\n    ) view private returns (bytes32) {\n        (bytes32 resultHash,\n         bytes32 matchHash,\n         string memory winningTeam,\n         uint winningScore,\n         string memory losingTeam,\n         uint losingScore) = getFinalResult(homeTeam, awayTeam, league, startTime);\n        return resultHash;\n    }\n\n    /**\n     * Validates that a bet can be placed on a valid match\n     *\n     * @return index the match index for the match the bet is placed on\n     */\n    function validateBet(\n        string homeTeam,\n        string awayTeam,\n        string league,\n        uint startTime,\n        string betOnTeam\n    ) view private returns (uint index){\n        bytes32 matchHash = getMatchHash(homeTeam, awayTeam, league, startTime);\n        index = matchIndex[matchHash];\n        // require the match can be bet on\n        require((index != 0 || matches[index].hash == matchHash)\n            && now < matches[index].startTime);\n        // require the bet is on a valid team\n        require(keccak256(abi.encodePacked(betOnTeam)) ==\n                    keccak256(abi.encodePacked(matches[index].homeTeam))\n                || keccak256(abi.encodePacked(betOnTeam)) ==\n                    keccak256(abi.encodePacked(matches[index].awayTeam)));\n    }\n\n    /**\n     * Calculates and returns the sum of the correct bet amounts\n     *\n     * @param matchHash the the hash of the match the bets are for\n     * @param winningTeam the team that won the match\n     */\n    function calculateWinningPool(\n        bytes32 matchHash,\n        string winningTeam\n    ) view private returns (uint winningPool) {\n        Match storage thisMatch = matches[matchIndex[matchHash]];\n        winningPool = 0;\n        for (uint i = 0; i < thisMatch.bets.length; i++) {\n            Bet storage thisBet = thisMatch.bets[i];\n            if (keccak256(abi.encodePacked(thisBet.betOnTeam))\n                    == keccak256(abi.encodePacked(winningTeam))) {\n                winningPool = winningPool.add(thisBet.amount);\n            }\n        }\n    }\n\n    /**\n     * Loops through the submitted results to check to see if a sufficient\n     * amount of results have been submitted to determine a probable outcome\n     *\n     * @param matchHash the hash of the match the result is for\n     */\n    function processResults(bytes32 matchHash) private {\n        uint index = matchIndex[matchHash];\n        Match storage thisMatch = matches[index];\n        uint resultSubmissions = 0;\n        for (uint i = 0; i < thisMatch.resultCount.length; i++) {\n            Count storage thisCount = thisMatch.resultCount[i];\n            resultSubmissions = resultSubmissions.add(thisCount.value);\n        }\n        uint resultRatio = resultSubmissions.div(matchMakers.length);\n        if (resultRatio >= resultsNecessary) {\n            thisMatch.finished = true;\n        }\n    }\n\n    /**\n     * Calculates the unique byte32 identifier hash for the specified match\n     */\n    function getMatchHash(\n        string homeTeam,\n        string awayTeam,\n        string league,\n        uint startTime\n    ) pure private returns (bytes32 matchHash){\n        matchHash = keccak256(abi.encodePacked(\n            homeTeam,\n            awayTeam,\n            league,\n            startTime\n        ));\n    }\n\n    // fallback payable function\n    function() payable public {\n\n    }\n\n    // getter that returns the contract ether balance\n    function getEtherBalance() onlyOwner view public returns (uint) {\n        return address(this).balance;\n    }\n\n    // delete the contract from the blockchain\n    function kill() onlyOwner public{\n        selfdestruct(owner);\n    }\n\n}\n\n/**\n * @title SafeMath\n * @dev Math operations with safety checks that throw on error\n */\nlibrary SafeMath {\n\n  function mul(uint256 a, uint256 b) internal pure returns (uint256) {\n    if (a == 0) {\n      return 0;\n    }\n    uint256 c = a * b;\n    assert(c / a == b);\n    return c;\n  }\n\n  function div(uint256 a, uint256 b) internal pure returns (uint256) {\n    // assert(b > 0); // Solidity automatically throws when dividing by 0\n    uint256 c = a / b;\n    // assert(a == b * c + a % b); // There is no case in which this doesn't hold\n    return c;\n  }\n\n  function sub(uint256 a, uint256 b) internal pure returns (uint256) {\n    assert(b <= a);\n    return a - b;\n  }\n\n  function add(uint256 a, uint256 b) internal pure returns (uint256) {\n    uint256 c = a + b;\n    assert(c >= a);\n    return c;\n  }\n\n}\n",
  "sourcePath": "C:\\Users\\bigma\\OneDrive\\Documents\\Coding\\GitHub\\Sport-Betting-Contract\\contracts\\bettingContract.sol",
  "compiler": {
    "name": "solc",
    "version": "0.4.24+commit.e67f0147.Emscripten.clang"
  },
  "schemaVersion": "2.0.0",
  "updatedAt": "2018-07-29T21:54:52.351Z"
}